{
  "contractName": "Pacientes",
  "abi": [
    {
      "anonymous": false,
      "inputs": [
        {
          "indexed": false,
          "internalType": "string",
          "name": "cpf",
          "type": "string"
        },
        {
          "indexed": false,
          "internalType": "string",
          "name": "nome",
          "type": "string"
        }
      ],
      "name": "PacienteCadastrado",
      "type": "event"
    },
    {
      "inputs": [
        {
          "internalType": "string",
          "name": "nome",
          "type": "string"
        },
        {
          "internalType": "string",
          "name": "cpf",
          "type": "string"
        },
        {
          "internalType": "uint256",
          "name": "idade",
          "type": "uint256"
        },
        {
          "internalType": "string",
          "name": "enderecoPaciente",
          "type": "string"
        }
      ],
      "name": "cadastrarPaciente",
      "outputs": [],
      "stateMutability": "nonpayable",
      "type": "function"
    },
    {
      "inputs": [
        {
          "internalType": "string",
          "name": "cpf",
          "type": "string"
        }
      ],
      "name": "consultarPaciente",
      "outputs": [
        {
          "internalType": "string",
          "name": "",
          "type": "string"
        },
        {
          "internalType": "string",
          "name": "",
          "type": "string"
        },
        {
          "internalType": "uint256",
          "name": "",
          "type": "uint256"
        },
        {
          "internalType": "string",
          "name": "",
          "type": "string"
        }
      ],
      "stateMutability": "view",
      "type": "function"
    }
  ],
  "bytecode": "0x608060405234801561001057600080fd5b50610c2a806100206000396000f3fe608060405234801561001057600080fd5b50600436106100365760003560e01c80633d5760691461003b57806364c138211461006e575b600080fd5b6100556004803603810190610050919061067b565b61008a565b604051610065949392919061096e565b60405180910390f35b610088600480360381019061008391906106bc565b61030c565b005b606080600060606001856040516100a19190610920565b908152602001604051809103902060009054906101000a900460ff166100fc576040517f08c379a00000000000000000000000000000000000000000000000000000000081526004016100f3906109c8565b60405180910390fd5b6000808660405161010d9190610920565b908152602001604051809103902060405180608001604052908160008201805461013690610b3c565b80601f016020809104026020016040519081016040528092919081815260200182805461016290610b3c565b80156101af5780601f10610184576101008083540402835291602001916101af565b820191906000526020600020905b81548152906001019060200180831161019257829003601f168201915b505050505081526020016001820180546101c890610b3c565b80601f01602080910402602001604051908101604052809291908181526020018280546101f490610b3c565b80156102415780601f1061021657610100808354040283529160200191610241565b820191906000526020600020905b81548152906001019060200180831161022457829003601f168201915b505050505081526020016002820154815260200160038201805461026490610b3c565b80601f016020809104026020016040519081016040528092919081815260200182805461029090610b3c565b80156102dd5780601f106102b2576101008083540402835291602001916102dd565b820191906000526020600020905b8154815290600101906020018083116102c057829003601f168201915b505050505081525050905080600001518160200151826040015183606001519450945094509450509193509193565b6000845111610350576040517f08c379a000000000000000000000000000000000000000000000000000000000815260040161034790610a48565b60405180910390fd5b6000835111610394576040517f08c379a000000000000000000000000000000000000000000000000000000000815260040161038b90610a28565b60405180910390fd5b600c82116103d7576040517f08c379a00000000000000000000000000000000000000000000000000000000081526004016103ce906109e8565b60405180910390fd5b6001836040516103e79190610920565b908152602001604051809103902060009054906101000a900460ff1615610443576040517f08c379a000000000000000000000000000000000000000000000000000000000815260040161043a90610a08565b60405180910390fd5b6040518060800160405280858152602001848152602001838152602001828152506000846040516104749190610920565b9081526020016040518091039020600082015181600001908051906020019061049e92919061055b565b5060208201518160010190805190602001906104bb92919061055b565b506040820151816002015560608201518160030190805190602001906104e292919061055b565b50905050600180846040516104f79190610920565b908152602001604051809103902060006101000a81548160ff0219169083151502179055507f48af18ae6fec3b990bbfe5a2e9c20c0b1d27fff5b81b3fedb4872cd421b48a4a838560405161054d929190610937565b60405180910390a150505050565b82805461056790610b3c565b90600052602060002090601f01602090048101928261058957600085556105d0565b82601f106105a257805160ff19168380011785556105d0565b828001600101855582156105d0579182015b828111156105cf5782518255916020019190600101906105b4565b5b5090506105dd91906105e1565b5090565b5b808211156105fa5760008160009055506001016105e2565b5090565b600061061161060c84610a99565b610a68565b90508281526020810184848401111561062957600080fd5b610634848285610afa565b509392505050565b600082601f83011261064d57600080fd5b813561065d8482602086016105fe565b91505092915050565b60008135905061067581610bdd565b92915050565b60006020828403121561068d57600080fd5b600082013567ffffffffffffffff8111156106a757600080fd5b6106b38482850161063c565b91505092915050565b600080600080608085870312156106d257600080fd5b600085013567ffffffffffffffff8111156106ec57600080fd5b6106f88782880161063c565b945050602085013567ffffffffffffffff81111561071557600080fd5b6107218782880161063c565b935050604061073287828801610666565b925050606085013567ffffffffffffffff81111561074f57600080fd5b61075b8782880161063c565b91505092959194509250565b600061077282610ac9565b61077c8185610ad4565b935061078c818560208601610b09565b61079581610bcc565b840191505092915050565b60006107ab82610ac9565b6107b58185610ae5565b93506107c5818560208601610b09565b80840191505092915050565b60006107de601783610ad4565b91507f50616369656e7465206e616f20656e636f6e747261646f0000000000000000006000830152602082019050919050565b600061081e601b83610ad4565b91507f4964616465206465766520736572206d61696f722071756520313200000000006000830152602082019050919050565b600061085e601183610ad4565b91507f435046206a61206361646173747261646f0000000000000000000000000000006000830152602082019050919050565b600061089e600f83610ad4565b91507f435046206f6272696761746f72696f00000000000000000000000000000000006000830152602082019050919050565b60006108de601083610ad4565b91507f4e6f6d65206f6272696761746f72696f000000000000000000000000000000006000830152602082019050919050565b61091a81610af0565b82525050565b600061092c82846107a0565b915081905092915050565b600060408201905081810360008301526109518185610767565b905081810360208301526109658184610767565b90509392505050565b600060808201905081810360008301526109888187610767565b9050818103602083015261099c8186610767565b90506109ab6040830185610911565b81810360608301526109bd8184610767565b905095945050505050565b600060208201905081810360008301526109e1816107d1565b9050919050565b60006020820190508181036000830152610a0181610811565b9050919050565b60006020820190508181036000830152610a2181610851565b9050919050565b60006020820190508181036000830152610a4181610891565b9050919050565b60006020820190508181036000830152610a61816108d1565b9050919050565b6000604051905081810181811067ffffffffffffffff82111715610a8f57610a8e610b9d565b5b8060405250919050565b600067ffffffffffffffff821115610ab457610ab3610b9d565b5b601f19601f8301169050602081019050919050565b600081519050919050565b600082825260208201905092915050565b600081905092915050565b6000819050919050565b82818337600083830152505050565b60005b83811015610b27578082015181840152602081019050610b0c565b83811115610b36576000848401525b50505050565b60006002820490506001821680610b5457607f821691505b60208210811415610b6857610b67610b6e565b5b50919050565b7f4e487b7100000000000000000000000000000000000000000000000000000000600052602260045260246000fd5b7f4e487b7100000000000000000000000000000000000000000000000000000000600052604160045260246000fd5b6000601f19601f8301169050919050565b610be681610af0565b8114610bf157600080fd5b5056fea264697066735822122079d604b03b1eb80490f9c1e52992406acf7c60d040e4a01af811da663b8761e264736f6c63430008000033",
  "immutableReferences": {},
  "source": "// SPDX-License-Identifier: MIT\r\npragma solidity ^0.8.0;\r\n\r\n// Contrato principal para cadastro de pacientes\r\ncontract Pacientes {\r\n    // Estrutura que representa um paciente\r\n    struct Paciente {\r\n        string nome; // Nome do paciente\r\n        string cpf; // CPF do paciente (identificador nico)\r\n        uint idade; // Idade do paciente\r\n        string enderecoPaciente; // Endereo do paciente (opcional)\r\n    }\r\n\r\n    // Mapeamento do CPF para o struct Paciente\r\n    mapping(string => Paciente) private pacientes;\r\n    // Mapeamento para verificar se um CPF j foi cadastrado\r\n    mapping(string => bool) private cpfCadastrado;\r\n\r\n    // Evento emitido quando um paciente  cadastrado\r\n    event PacienteCadastrado(string cpf, string nome);\r\n\r\n    // Funo para cadastrar um novo paciente\r\n    function cadastrarPaciente(\r\n        string memory nome,\r\n        string memory cpf,\r\n        uint idade,\r\n        string memory enderecoPaciente\r\n    ) public {\r\n        // Validaes de negcio\r\n        require(bytes(nome).length > 0, \"Nome obrigatorio\");\r\n        require(bytes(cpf).length > 0, \"CPF obrigatorio\");\r\n        require(idade > 12, \"Idade deve ser maior que 12\");\r\n        require(!cpfCadastrado[cpf], \"CPF ja cadastrado\");\r\n\r\n        // Cria e armazena o paciente\r\n        pacientes[cpf] = Paciente(nome, cpf, idade, enderecoPaciente);\r\n        cpfCadastrado[cpf] = true;\r\n        emit PacienteCadastrado(cpf, nome);\r\n    }\r\n\r\n    // Funo para consultar os dados de um paciente pelo CPF\r\n    function consultarPaciente(\r\n        string memory cpf\r\n    ) public view returns (string memory, string memory, uint, string memory) {\r\n        require(cpfCadastrado[cpf], \"Paciente nao encontrado\");\r\n        Paciente memory p = pacientes[cpf];\r\n        return (p.nome, p.cpf, p.idade, p.enderecoPaciente);\r\n    }\r\n}\r\n",
  "sourcePath": "C:\\Users\\calee\\OneDrive\\rea de Trabalho\\Excalidraws\\Blockchain\\Entrega Final da Fase 2\\contracts\\Pacientes.sol",
  "compiler": {
    "name": "solc",
    "version": "0.8.0+commit.c7dfd78e.Emscripten.clang"
  },
  "schemaVersion": "3.4.16",
  "updatedAt": "2025-09-19T22:36:28.571Z",
  "devdoc": {
    "kind": "dev",
    "methods": {},
    "version": 1
  },
  "userdoc": {
    "kind": "user",
    "methods": {},
    "version": 1
  }
}